{
  "abi": [
    {
      "inputs": [
        {
          "internalType": "uint256",
          "name": "_x",
          "type": "uint256"
        }
      ],
      "name": "uintAssert",
      "outputs": [],
      "stateMutability": "pure",
      "type": "function"
    },
    {
      "inputs": [
        {
          "internalType": "uint256",
          "name": "_x",
          "type": "uint256"
        }
      ],
      "name": "uintRequire",
      "outputs": [],
      "stateMutability": "pure",
      "type": "function"
    },
    {
      "inputs": [
        {
          "internalType": "uint256",
          "name": "_x",
          "type": "uint256"
        },
        {
          "internalType": "uint256",
          "name": "_y",
          "type": "uint256"
        }
      ],
      "name": "uintRevert",
      "outputs": [],
      "stateMutability": "pure",
      "type": "function"
    }
  ],
  "bytecode": {
    "object": "0x608060405234801561001057600080fd5b506101c3806100206000396000f3fe608060405234801561001057600080fd5b50600436106100415760003560e01c806311a5018c146100465780631c20d2dc1461005b57806397f2c1851461006e575b600080fd5b61005961005436600461013c565b610081565b005b610059610069366004610155565b610094565b61005961007c36600461013c565b6100ec565b6000811161009157610091610177565b50565b8082116100e85760405162461bcd60e51b815260206004820152601860248201527f78206d7573742062652067726561746572207468616e2079000000000000000060448201526064015b60405180910390fd5b5050565b600081116100915760405162461bcd60e51b815260206004820152601d60248201527f4e756d626572206d7573742062652067726561746572207468616e203000000060448201526064016100df565b60006020828403121561014e57600080fd5b5035919050565b6000806040838503121561016857600080fd5b50508035926020909101359150565b634e487b7160e01b600052600160045260246000fdfea264697066735822122021dfcdd8bf0c5e08964bae7444e791aa867dfe42ecf37feb69807e3ea71ae56464736f6c63430008150033",
    "linkReferences": {}
  },
  "methodIdentifiers": {
    "uintAssert(uint256)": "11a5018c",
    "uintRequire(uint256)": "97f2c185",
    "uintRevert(uint256,uint256)": "1c20d2dc"
  },
  "id": 0
}